:100000000C942A000C943F030C943C000C943C008C
:100010000C943C000C943C000C943C000C943C0070
:100020000C943C000C943C000C943C000C943C0060
:100030000C943C000C943C000C943C000C943C0050
:100040000C943C000C943C000C943C000C943C0040
:100050000C943C0011241FBECFE5D4E0DEBFCDBF21
:1000600010E0A0E6B0E001C01D92AD36B107E1F7A7
:100070000E949B030C94AD040C940000982F9F7079
:1000800082958F708A3018F4282F205D02C0282FA7
:10009000295C9A3018F4892F805D02C0892F895C11
:1000A0005D9BFECF2CB95D9BFECF8CB908955D9B07
:1000B000FECF8CB908955D9BFECF8DE08CB95D9B22
:1000C000FECF8AE08CB9089520E004C05D9BFECF8E
:1000D000ECB92F5FFC01E20FF11DE081EE23B1F7D7
:1000E000089573B383B3807493B3907223B3207174
:1000F00033B3387043B3447053B3527063B38295D3
:1001000086958770771F7727771F872B969596950B
:100110009695892B2695822B330F832B440F440F02
:10012000440F842B5295550F507E852B679566277B
:100130006795862B80950895C49880688FB9779BC2
:10014000FECF6FB9779BFECFC49A0895C4988F777E
:100150008FB9779BFECF1FB8779BFECFC49A8FB124
:100160000895EF92FF920F931F9310E09AE3E92E08
:1001700080E2F82E812F0E94A600082F812F0E9476
:100180003E005D9BFECFECB85D9BFECFFCB8802FA0
:100190000E943E000E945B001F5F103859F71F91BC
:1001A0000F91FF90EF9008950E945B005D9BFECF42
:1001B0008EE38CB990E05F9BFECF8CB1E92FF0E02D
:1001C000E05AFF4F80839F5F5D9BFECF8CB98D30DF
:1001D00091F79150E92FF0E0E05AFF4F10825D9BBC
:1001E000FECF8AE08CB908950E94710082958F70CD
:1001F00009F45FC18130F9F480E760E20E949C005D
:100200008CE163E30E949C0080E260ED0E949C0010
:1002100081E260E00E949C0082E26DE90E949C0005
:1002200083E269E40E949C0084E260E00E949C00FA
:1002300085E260EA19C18230F9F480E760E20E9449
:100240009C008CE167E00E949C0080E263E80E94D1
:100250009C0081E260EC0E949C0082E263E10E94CB
:100260009C0083E269EA0E949C0084E260E00E94B4
:100270009C0085E265E0F8C08330F9F480E760E235
:100280000E949C008CE164E30E949C0080E268E68E
:100290000E949C0081E261E00E949C0082E26AE38D
:1002A0000E949C0083E263E90E949C0084E262E079
:1002B0000E949C0085E268E7D7C08430F9F480E7AB
:1002C00060E20E949C008CE164E00E949C0080E25D
:1002D00061E40E949C0081E260E60E949C0082E250
:1002E00067E20E949C0083E262E50E949C0084E237
:1002F00060E00E949C0085E26AE0B6C0853039F477
:1003000080E760E20E949C008CE161E232C08630AE
:10031000F9F480E760E20E949C008CE163E00E94B7
:100320009C0080E260E90E949C0081E260E20E9401
:100330009C0082E261E50E949C0083E26CEE0E94D8
:100340009C0084E260E00E949C0085E26BE28CC02D
:10035000873039F480E760E20E949C008CE161E123
:1003600008C08830F9F480E760E00E949C008CE1CE
:1003700061E00E949C0080E264E60E949C0081E2B1
:1003800061E00E949C0082E267E40E949C0083E29C
:100390006EEA0E949C0084E265E00E949C0085E277
:1003A00061E262C08930F9F480E760E00E949C005D
:1003B0008CE165E00E949C0080E264E60E949C0063
:1003C00081E261E00E949C0082E267E40E949C005E
:1003D00083E26EEA0E949C0084E262E00E949C003C
:1003E00085E261E941C08A30F9F480E760E00E946B
:1003F0009C008CE16FE00E949C0080E268E70E9414
:100400009C0081E261E00E949C0082E261E10E9426
:100410009C0083E261E10E949C0084E264E00E940F
:100420009C0085E266E420C08B3009F580E760E03F
:100430000E949C008CE16EE00E949C0080E268E7D4
:100440000E949C0081E261E00E949C0082E261E1E6
:100450000E949C0083E261E10E949C0084E260E0D3
:100460000E949C0085E268EB0E949C0008958C30FD
:1004700001F580E760E20E949C008CE164E00E944C
:100480009C0080E268EC0E949C0081E260E00E9497
:100490009C0082E263EA0E949C0083E267ED0E9476
:1004A0009C0084E260E00E949C0085E266EA0E9473
:1004B0009C0008950F931F93CF93DF93EC018881E5
:1004C000873501F58A81382F30533A3008F037509C
:1004D0009B81892F80538A3008F087502D81922F7D
:1004E00090539A3008F097502E81622F60536A30F3
:1004F00008F067509295907F3295307F692B832B5F
:100500000E949C008881843411F40E94B10088818B
:10051000833521F487E061E00E949C008881843566
:1005200031F40E94F40087E069E00E949C00888119
:10053000803541F481E70E94A600682F606381E75F
:100540000E949C008881833441F481E70E94A600C8
:10055000682F6C7F81E70E949C008881873441F47A
:1005600081E70E94A600682F636081E70E949C00DB
:1005700088818F3449F481E70E94A600682F61606A
:100580006D7F81E70E949C008881863449F481E771
:100590000E94A600682F62606E7F81E70E949C0027
:1005A00088818E3449F481E70E94A600682F60623A
:1005B0006F7E81E70E949C008881823599F48A8150
:1005C000982F90539A3008F097502B81822F8053A8
:1005D0008A3008F087509295907F892B0E94A60060
:1005E0000E943E008881813371F585E067E00E94BA
:1005F0009C000E94F400C29808EB10E019C0109211
:100600006C008FE76AE60E949C008FE765E40E9419
:100610009C0087E069E00E949C0080916C00882328
:10062000E1F38CED95E0F8013197F1F70197D9F7F7
:10063000B099E5CFC29A85E060E00E949C0087E017
:1006400061E00E949C0088818233A1F485E067E02C
:100650000E949C000E94F40087E065E00E949C00DC
:10066000B099FECF85E060E00E949C0087E061E0E9
:100670000E949C00DF91CF911F910F9108951F92CE
:100680000F920FB60F9211241F932F933F934F9306
:100690005F936F937F938F939F93AF93BF93EF93EA
:1006A000FF9387E061E00E949C0083E00E94A60027
:1006B000182F84E00E94A600177088E062E00E9474
:1006C0009C0088E060E00E949C0088E061E00E945D
:1006D0009C0088E060E00E949C00143018F081E0EB
:1006E00080936C00113041F4C29AC19880E090E987
:1006F0000197F1F7C19A09C0123059F4C19AC29812
:1007000080E090E90197F1F7C29A87E065E00E94E6
:100710009C00FF91EF91BF91AF919F918F917F913D
:100720006F915F914F913F912F911F910F900FBE4D
:100730000F901F90189586EB87BBC09AC19AC29AFA
:1007400011BA12BA14BA8FEF85BB1ABA15BE80E47B
:100750008BBF83E089B910BC86E880BD88E18AB987
:10076000C49A80E58DB981E08EB98CED95E028EBD7
:1007700030E0F9013197F1F70197D9F787E060E8A8
:100780000E949C008CED95E028EB30E0F901319758
:10079000F1F70197D9F785E060E00E949C0086E0C0
:1007A00060E00E949C0083E00E94A60084E00E941A
:1007B000A6008AE56FE70E949C0088E560E80E9439
:1007C0009C0089E560E40E949C008AE66BE00E9440
:1007D0009C0088E664E00E949C008FE163E00E9438
:1007E0009C0089E06DE70E949C008AE060E00E9426
:1007F0009C008BE062ED0E949C008CE065ED0E9405
:100800009C008DE060E00E949C008FE060E70E9409
:100810009C0080E160E00E949C0082E160E00E9418
:100820009C0083E160E00E949C008CE164E00E94F7
:100830009C008DE160E40E949C008EE165E00E94D6
:100840009C0080E268EC0E949C0081E260E00E94D3
:100850009C0082E263EA0E949C0083E267ED0E94B2
:100860009C0084E260E00E949C0085E266EA0E94AF
:100870009C0080E36EE80E949C0082E360E00E949E
:100880009C0083E362E00E949C0084E360E10E949C
:100890009C0085E360E30E949C0086E36DE20E9479
:1008A0009C0087E364ED0E949C0089E660E20E9460
:1008B0009C008EE362E00E949C008DE660E00E9456
:1008C0009C0080E760E20E949C0081E763E20E9456
:1008D0009C0082E760E40E949C008EE663EA0E942E
:1008E0009C008FE667ED0E949C0083E760E00E9419
:1008F0009C0084E760E00E949C0089E760E00E9421
:100900009C008AE760E00E949C0085E763E50E9406
:100910009C0086E762E60E949C0087E760E00E94F8
:100920009C0085E067E00E949C0088E061E00E94F6
:100930009C0088E060E00E949C0088E062E00E94E9
:100940009C0088E060E00E949C0078940E94D400A3
:0E09500080E690E00E945A02F9CFF894FFCFA3
:00000001FF
